{
  "abi": [
    {
      "inputs": [
        {
          "internalType": "address",
          "name": "factory_",
          "type": "address"
        },
        {
          "internalType": "uint256",
          "name": "windowSize_",
          "type": "uint256"
        },
        {
          "internalType": "uint8",
          "name": "granularity_",
          "type": "uint8"
        }
      ],
      "stateMutability": "nonpayable",
      "type": "constructor"
    },
    {
      "inputs": [
        {
          "internalType": "address",
          "name": "tokenIn",
          "type": "address"
        },
        {
          "internalType": "uint256",
          "name": "amountIn",
          "type": "uint256"
        },
        {
          "internalType": "address",
          "name": "tokenOut",
          "type": "address"
        }
      ],
      "name": "consult",
      "outputs": [
        {
          "internalType": "uint256",
          "name": "amountOut",
          "type": "uint256"
        }
      ],
      "stateMutability": "view",
      "type": "function"
    },
    {
      "inputs": [],
      "name": "factory",
      "outputs": [
        {
          "internalType": "address",
          "name": "",
          "type": "address"
        }
      ],
      "stateMutability": "view",
      "type": "function"
    },
    {
      "inputs": [],
      "name": "granularity",
      "outputs": [
        {
          "internalType": "uint8",
          "name": "",
          "type": "uint8"
        }
      ],
      "stateMutability": "view",
      "type": "function"
    },
    {
      "inputs": [
        {
          "internalType": "uint256",
          "name": "timestamp",
          "type": "uint256"
        }
      ],
      "name": "observationIndexOf",
      "outputs": [
        {
          "internalType": "uint8",
          "name": "index",
          "type": "uint8"
        }
      ],
      "stateMutability": "view",
      "type": "function"
    },
    {
      "inputs": [
        {
          "internalType": "address",
          "name": "",
          "type": "address"
        },
        {
          "internalType": "uint256",
          "name": "",
          "type": "uint256"
        }
      ],
      "name": "pairObservations",
      "outputs": [
        {
          "internalType": "uint256",
          "name": "timestamp",
          "type": "uint256"
        },
        {
          "internalType": "uint256",
          "name": "price0Cumulative",
          "type": "uint256"
        },
        {
          "internalType": "uint256",
          "name": "price1Cumulative",
          "type": "uint256"
        }
      ],
      "stateMutability": "view",
      "type": "function"
    },
    {
      "inputs": [],
      "name": "periodSize",
      "outputs": [
        {
          "internalType": "uint256",
          "name": "",
          "type": "uint256"
        }
      ],
      "stateMutability": "view",
      "type": "function"
    },
    {
      "inputs": [
        {
          "internalType": "address",
          "name": "tokenA",
          "type": "address"
        },
        {
          "internalType": "address",
          "name": "tokenB",
          "type": "address"
        }
      ],
      "name": "update",
      "outputs": [],
      "stateMutability": "nonpayable",
      "type": "function"
    },
    {
      "inputs": [],
      "name": "windowSize",
      "outputs": [
        {
          "internalType": "uint256",
          "name": "",
          "type": "uint256"
        }
      ],
      "stateMutability": "view",
      "type": "function"
    }
  ],
  "evm": {
    "bytecode": {
      "linkReferences": {},
      "object": "61010060405234801561001157600080fd5b50604051610e27380380610e278339818101604052606081101561003457600080fd5b5080516020820151604090920151909190600160ff82161161009d576040805162461bcd60e51b815260206004820181905260248201527f536c6964696e6757696e646f774f7261636c653a204752414e554c4152495459604482015290519081900360640190fd5b8160ff82168082816100ab57fe5b0460e081905202146100ee5760405162461bcd60e51b8152600401808060200182810382526030815260200180610df76030913960400191505060405180910390fd5b606083901b6001600160601b03191660805260a082905260f881901b7fff000000000000000000000000000000000000000000000000000000000000001660c05260e0516001600160a01b039093169260ff90911690610c5861019f600039806102a952806104eb528061053e528061059e5250806101c05280610448528061056a52806106925250806101e4528061024a52806102cd52508061020e52806103da52806104035250610c586000f3fe608060405234801561001057600080fd5b50600436106100885760003560e01c8063c45a01551161005b578063c45a015514610145578063c640752d14610169578063dbaad32f14610199578063e4463eb2146101b657610088565b8063556f0dc71461008d5780638a14117a146100ab5780638c86f1e4146100c5578063bfcc8e42146100fb575b600080fd5b6100956101be565b6040805160ff9092168252519081900360200190f35b6100b36101e2565b60408051918252519081900360200190f35b6100b3600480360360608110156100db57600080fd5b506001600160a01b03813581169160208101359160409091013516610206565b6101276004803603604081101561011157600080fd5b506001600160a01b038135169060200135610399565b60408051938452602084019290925282820152519081900360600190f35b61014d6103d8565b604080516001600160a01b039092168252519081900360200190f35b6101976004803603604081101561017f57600080fd5b506001600160a01b03813581169160200135166103fc565b005b610095600480360360208110156101af57600080fd5b5035610539565b6100b361059c565b7f000000000000000000000000000000000000000000000000000000000000000081565b7f000000000000000000000000000000000000000000000000000000000000000081565b6000806102347f000000000000000000000000000000000000000000000000000000000000000086856105c0565b9050600061024182610680565b805490915042037f00000000000000000000000000000000000000000000000000000000000000008111156102a75760405162461bcd60e51b8152600401808060200182810382526033815260200180610ba16033913960400191505060405180910390fd5b7f00000000000000000000000000000000000000000000000000000000000000006002027f00000000000000000000000000000000000000000000000000000000000000000381101561032b5760405162461bcd60e51b815260040180806020018281038252602c815260200180610bd4602c913960400191505060405180910390fd5b6000806103378561070e565b509150915060006103488a896108dd565b509050896001600160a01b0316816001600160a01b0316141561038257610375856001015484868c6109bb565b9650505050505050610392565b610375856002015483868c6109bb565b9392505050565b600060205281600052604060002081815481106103b257fe5b600091825260209091206003909102018054600182015460029092015490935090915083565b7f000000000000000000000000000000000000000000000000000000000000000081565b60006104297f000000000000000000000000000000000000000000000000000000000000000084846105c0565b6001600160a01b0381166000908152602081905260409020549091505b7f000000000000000000000000000000000000000000000000000000000000000060ff1681101561049a576001600160a01b0382166000908152602081905260408120805460019081018255915201610446565b5060006104a642610539565b6001600160a01b03831660009081526020819052604081208054929350909160ff84169081106104d257fe5b60009182526020909120600390910201805490915042037f00000000000000000000000000000000000000000000000000000000000000008111156105315760008061051d8661070e565b504286556001860191909155600285015550505b505050505050565b6000807f0000000000000000000000000000000000000000000000000000000000000000838161056557fe5b0490507f000000000000000000000000000000000000000000000000000000000000000060ff16818161059457fe5b069392505050565b7f000000000000000000000000000000000000000000000000000000000000000081565b60008060006105cf85856108dd565b604080516bffffffffffffffffffffffff19606094851b811660208084019190915293851b81166034830152825160288184030181526048830184528051908501206001600160f81b031960688401529a90941b9093166069840152607d8301989098527fd306a548755b9295ee49cc729e13ca4a45e00199bbd890fa146da43a50571776609d808401919091528851808403909101815260bd909201909752805196019590952095945050505050565b60008061068c42610539565b905060007f000000000000000000000000000000000000000000000000000000000000000060ff168260010160ff16816106c257fe5b069050600080856001600160a01b03166001600160a01b031681526020019081526020016000208160ff16815481106106f757fe5b906000526020600020906003020192505050919050565b600080600061071b610a19565b9050836001600160a01b0316635909c0d56040518163ffffffff1660e01b815260040160206040518083038186803b15801561075657600080fd5b505afa15801561076a573d6000803e3d6000fd5b505050506040513d602081101561078057600080fd5b505160408051635a3d549360e01b815290519194506001600160a01b03861691635a3d549391600480820192602092909190829003018186803b1580156107c657600080fd5b505afa1580156107da573d6000803e3d6000fd5b505050506040513d60208110156107f057600080fd5b505160408051630240bc6b60e21b81529051919350600091829182916001600160a01b03891691630902f1ac916004808301926060929190829003018186803b15801561083c57600080fd5b505afa158015610850573d6000803e3d6000fd5b505050506040513d606081101561086657600080fd5b5080516020820151604090920151909450909250905063ffffffff808216908516146108d35780840363ffffffff81166108a08486610a23565b516001600160e01b031602969096019563ffffffff81166108c18585610a23565b516001600160e01b0316029590950194505b5050509193909250565b600080826001600160a01b0316846001600160a01b031614156109315760405162461bcd60e51b8152600401808060200182810382526023815260200180610b7e6023913960400191505060405180910390fd5b826001600160a01b0316846001600160a01b031610610951578284610954565b83835b90925090506001600160a01b0382166109b4576040805162461bcd60e51b815260206004820152601c60248201527f444558737761704c6962726172793a205a45524f5f4144445245535300000000604482015290519081900360640190fd5b9250929050565b60006109c5610b58565b604051806020016040528085888803816109db57fe5b046001600160e01b0316905290506109fb6109f68285610ad3565b610b51565b71ffffffffffffffffffffffffffffffffffff169695505050505050565b63ffffffff421690565b610a2b610b58565b6000826001600160701b031611610a89576040805162461bcd60e51b815260206004820152601760248201527f4669786564506f696e743a204449565f42595f5a45524f000000000000000000604482015290519081900360640190fd5b6040805160208101909152806001600160701b0384166dffffffffffffffffffffffffffff60701b607087901b1681610abe57fe5b046001600160e01b0316815250905092915050565b610adb610b6a565b6000821580610b0157505082516001600160e01b031682810290838281610afe57fe5b04145b610b3c5760405162461bcd60e51b8152600401808060200182810382526023815260200180610c006023913960400191505060405180910390fd5b60408051602081019091529081529392505050565b5160701c90565b60408051602081019091526000815290565b604051806020016040528060008152509056fe444558737761704c6962726172793a204944454e544943414c5f414444524553534553536c6964696e6757696e646f774f7261636c653a204d495353494e475f484953544f524943414c5f4f42534552564154494f4e536c6964696e6757696e646f774f7261636c653a20554e45585045435445445f54494d455f454c41505345444669786564506f696e743a204d554c5449504c49434154494f4e5f4f564552464c4f57a26469706673582212200f857cdd5f50a5550ecb414b330b5309a45aff9129760c3e6d34d5941eea9fa164736f6c63430006060033536c6964696e6757696e646f774f7261636c653a2057494e444f575f4e4f545f4556454e4c595f444956495349424c45",
      "opcodes": "PUSH2 0x100 PUSH1 0x40 MSTORE CALLVALUE DUP1 ISZERO PUSH2 0x11 JUMPI PUSH1 0x0 DUP1 REVERT JUMPDEST POP PUSH1 0x40 MLOAD PUSH2 0xE27 CODESIZE SUB DUP1 PUSH2 0xE27 DUP4 CODECOPY DUP2 DUP2 ADD PUSH1 0x40 MSTORE PUSH1 0x60 DUP2 LT ISZERO PUSH2 0x34 JUMPI PUSH1 0x0 DUP1 REVERT JUMPDEST POP DUP1 MLOAD PUSH1 0x20 DUP3 ADD MLOAD PUSH1 0x40 SWAP1 SWAP3 ADD MLOAD SWAP1 SWAP2 SWAP1 PUSH1 0x1 PUSH1 0xFF DUP3 AND GT PUSH2 0x9D JUMPI PUSH1 0x40 DUP1 MLOAD PUSH3 0x461BCD PUSH1 0xE5 SHL DUP2 MSTORE PUSH1 0x20 PUSH1 0x4 DUP3 ADD DUP2 SWAP1 MSTORE PUSH1 0x24 DUP3 ADD MSTORE PUSH32 0x536C6964696E6757696E646F774F7261636C653A204752414E554C4152495459 PUSH1 0x44 DUP3 ADD MSTORE SWAP1 MLOAD SWAP1 DUP2 SWAP1 SUB PUSH1 0x64 ADD SWAP1 REVERT JUMPDEST DUP2 PUSH1 0xFF DUP3 AND DUP1 DUP3 DUP2 PUSH2 0xAB JUMPI INVALID JUMPDEST DIV PUSH1 0xE0 DUP2 SWAP1 MSTORE MUL EQ PUSH2 0xEE JUMPI PUSH1 0x40 MLOAD PUSH3 0x461BCD PUSH1 0xE5 SHL DUP2 MSTORE PUSH1 0x4 ADD DUP1 DUP1 PUSH1 0x20 ADD DUP3 DUP2 SUB DUP3 MSTORE PUSH1 0x30 DUP2 MSTORE PUSH1 0x20 ADD DUP1 PUSH2 0xDF7 PUSH1 0x30 SWAP2 CODECOPY PUSH1 0x40 ADD SWAP2 POP POP PUSH1 0x40 MLOAD DUP1 SWAP2 SUB SWAP1 REVERT JUMPDEST PUSH1 0x60 DUP4 SWAP1 SHL PUSH1 0x1 PUSH1 0x1 PUSH1 0x60 SHL SUB NOT AND PUSH1 0x80 MSTORE PUSH1 0xA0 DUP3 SWAP1 MSTORE PUSH1 0xF8 DUP2 SWAP1 SHL PUSH32 0xFF00000000000000000000000000000000000000000000000000000000000000 AND PUSH1 0xC0 MSTORE PUSH1 0xE0 MLOAD PUSH1 0x1 PUSH1 0x1 PUSH1 0xA0 SHL SUB SWAP1 SWAP4 AND SWAP3 PUSH1 0xFF SWAP1 SWAP2 AND SWAP1 PUSH2 0xC58 PUSH2 0x19F PUSH1 0x0 CODECOPY DUP1 PUSH2 0x2A9 MSTORE DUP1 PUSH2 0x4EB MSTORE DUP1 PUSH2 0x53E MSTORE DUP1 PUSH2 0x59E MSTORE POP DUP1 PUSH2 0x1C0 MSTORE DUP1 PUSH2 0x448 MSTORE DUP1 PUSH2 0x56A MSTORE DUP1 PUSH2 0x692 MSTORE POP DUP1 PUSH2 0x1E4 MSTORE DUP1 PUSH2 0x24A MSTORE DUP1 PUSH2 0x2CD MSTORE POP DUP1 PUSH2 0x20E MSTORE DUP1 PUSH2 0x3DA MSTORE DUP1 PUSH2 0x403 MSTORE POP PUSH2 0xC58 PUSH1 0x0 RETURN INVALID PUSH1 0x80 PUSH1 0x40 MSTORE CALLVALUE DUP1 ISZERO PUSH2 0x10 JUMPI PUSH1 0x0 DUP1 REVERT JUMPDEST POP PUSH1 0x4 CALLDATASIZE LT PUSH2 0x88 JUMPI PUSH1 0x0 CALLDATALOAD PUSH1 0xE0 SHR DUP1 PUSH4 0xC45A0155 GT PUSH2 0x5B JUMPI DUP1 PUSH4 0xC45A0155 EQ PUSH2 0x145 JUMPI DUP1 PUSH4 0xC640752D EQ PUSH2 0x169 JUMPI DUP1 PUSH4 0xDBAAD32F EQ PUSH2 0x199 JUMPI DUP1 PUSH4 0xE4463EB2 EQ PUSH2 0x1B6 JUMPI PUSH2 0x88 JUMP JUMPDEST DUP1 PUSH4 0x556F0DC7 EQ PUSH2 0x8D JUMPI DUP1 PUSH4 0x8A14117A EQ PUSH2 0xAB JUMPI DUP1 PUSH4 0x8C86F1E4 EQ PUSH2 0xC5 JUMPI DUP1 PUSH4 0xBFCC8E42 EQ PUSH2 0xFB JUMPI JUMPDEST PUSH1 0x0 DUP1 REVERT JUMPDEST PUSH2 0x95 PUSH2 0x1BE JUMP JUMPDEST PUSH1 0x40 DUP1 MLOAD PUSH1 0xFF SWAP1 SWAP3 AND DUP3 MSTORE MLOAD SWAP1 DUP2 SWAP1 SUB PUSH1 0x20 ADD SWAP1 RETURN JUMPDEST PUSH2 0xB3 PUSH2 0x1E2 JUMP JUMPDEST PUSH1 0x40 DUP1 MLOAD SWAP2 DUP3 MSTORE MLOAD SWAP1 DUP2 SWAP1 SUB PUSH1 0x20 ADD SWAP1 RETURN JUMPDEST PUSH2 0xB3 PUSH1 0x4 DUP1 CALLDATASIZE SUB PUSH1 0x60 DUP2 LT ISZERO PUSH2 0xDB JUMPI PUSH1 0x0 DUP1 REVERT JUMPDEST POP PUSH1 0x1 PUSH1 0x1 PUSH1 0xA0 SHL SUB DUP2 CALLDATALOAD DUP2 AND SWAP2 PUSH1 0x20 DUP2 ADD CALLDATALOAD SWAP2 PUSH1 0x40 SWAP1 SWAP2 ADD CALLDATALOAD AND PUSH2 0x206 JUMP JUMPDEST PUSH2 0x127 PUSH1 0x4 DUP1 CALLDATASIZE SUB PUSH1 0x40 DUP2 LT ISZERO PUSH2 0x111 JUMPI PUSH1 0x0 DUP1 REVERT JUMPDEST POP PUSH1 0x1 PUSH1 0x1 PUSH1 0xA0 SHL SUB DUP2 CALLDATALOAD AND SWAP1 PUSH1 0x20 ADD CALLDATALOAD PUSH2 0x399 JUMP JUMPDEST PUSH1 0x40 DUP1 MLOAD SWAP4 DUP5 MSTORE PUSH1 0x20 DUP5 ADD SWAP3 SWAP1 SWAP3 MSTORE DUP3 DUP3 ADD MSTORE MLOAD SWAP1 DUP2 SWAP1 SUB PUSH1 0x60 ADD SWAP1 RETURN JUMPDEST PUSH2 0x14D PUSH2 0x3D8 JUMP JUMPDEST PUSH1 0x40 DUP1 MLOAD PUSH1 0x1 PUSH1 0x1 PUSH1 0xA0 SHL SUB SWAP1 SWAP3 AND DUP3 MSTORE MLOAD SWAP1 DUP2 SWAP1 SUB PUSH1 0x20 ADD SWAP1 RETURN JUMPDEST PUSH2 0x197 PUSH1 0x4 DUP1 CALLDATASIZE SUB PUSH1 0x40 DUP2 LT ISZERO PUSH2 0x17F JUMPI PUSH1 0x0 DUP1 REVERT JUMPDEST POP PUSH1 0x1 PUSH1 0x1 PUSH1 0xA0 SHL SUB DUP2 CALLDATALOAD DUP2 AND SWAP2 PUSH1 0x20 ADD CALLDATALOAD AND PUSH2 0x3FC JUMP JUMPDEST STOP JUMPDEST PUSH2 0x95 PUSH1 0x4 DUP1 CALLDATASIZE SUB PUSH1 0x20 DUP2 LT ISZERO PUSH2 0x1AF JUMPI PUSH1 0x0 DUP1 REVERT JUMPDEST POP CALLDATALOAD PUSH2 0x539 JUMP JUMPDEST PUSH2 0xB3 PUSH2 0x59C JUMP JUMPDEST PUSH32 0x0 DUP2 JUMP JUMPDEST PUSH32 0x0 DUP2 JUMP JUMPDEST PUSH1 0x0 DUP1 PUSH2 0x234 PUSH32 0x0 DUP7 DUP6 PUSH2 0x5C0 JUMP JUMPDEST SWAP1 POP PUSH1 0x0 PUSH2 0x241 DUP3 PUSH2 0x680 JUMP JUMPDEST DUP1 SLOAD SWAP1 SWAP2 POP TIMESTAMP SUB PUSH32 0x0 DUP2 GT ISZERO PUSH2 0x2A7 JUMPI PUSH1 0x40 MLOAD PUSH3 0x461BCD PUSH1 0xE5 SHL DUP2 MSTORE PUSH1 0x4 ADD DUP1 DUP1 PUSH1 0x20 ADD DUP3 DUP2 SUB DUP3 MSTORE PUSH1 0x33 DUP2 MSTORE PUSH1 0x20 ADD DUP1 PUSH2 0xBA1 PUSH1 0x33 SWAP2 CODECOPY PUSH1 0x40 ADD SWAP2 POP POP PUSH1 0x40 MLOAD DUP1 SWAP2 SUB SWAP1 REVERT JUMPDEST PUSH32 0x0 PUSH1 0x2 MUL PUSH32 0x0 SUB DUP2 LT ISZERO PUSH2 0x32B JUMPI PUSH1 0x40 MLOAD PUSH3 0x461BCD PUSH1 0xE5 SHL DUP2 MSTORE PUSH1 0x4 ADD DUP1 DUP1 PUSH1 0x20 ADD DUP3 DUP2 SUB DUP3 MSTORE PUSH1 0x2C DUP2 MSTORE PUSH1 0x20 ADD DUP1 PUSH2 0xBD4 PUSH1 0x2C SWAP2 CODECOPY PUSH1 0x40 ADD SWAP2 POP POP PUSH1 0x40 MLOAD DUP1 SWAP2 SUB SWAP1 REVERT JUMPDEST PUSH1 0x0 DUP1 PUSH2 0x337 DUP6 PUSH2 0x70E JUMP JUMPDEST POP SWAP2 POP SWAP2 POP PUSH1 0x0 PUSH2 0x348 DUP11 DUP10 PUSH2 0x8DD JUMP JUMPDEST POP SWAP1 POP DUP10 PUSH1 0x1 PUSH1 0x1 PUSH1 0xA0 SHL SUB AND DUP2 PUSH1 0x1 PUSH1 0x1 PUSH1 0xA0 SHL SUB AND EQ ISZERO PUSH2 0x382 JUMPI PUSH2 0x375 DUP6 PUSH1 0x1 ADD SLOAD DUP5 DUP7 DUP13 PUSH2 0x9BB JUMP JUMPDEST SWAP7 POP POP POP POP POP POP POP PUSH2 0x392 JUMP JUMPDEST PUSH2 0x375 DUP6 PUSH1 0x2 ADD SLOAD DUP4 DUP7 DUP13 PUSH2 0x9BB JUMP JUMPDEST SWAP4 SWAP3 POP POP POP JUMP JUMPDEST PUSH1 0x0 PUSH1 0x20 MSTORE DUP2 PUSH1 0x0 MSTORE PUSH1 0x40 PUSH1 0x0 KECCAK256 DUP2 DUP2 SLOAD DUP2 LT PUSH2 0x3B2 JUMPI INVALID JUMPDEST PUSH1 0x0 SWAP2 DUP3 MSTORE PUSH1 0x20 SWAP1 SWAP2 KECCAK256 PUSH1 0x3 SWAP1 SWAP2 MUL ADD DUP1 SLOAD PUSH1 0x1 DUP3 ADD SLOAD PUSH1 0x2 SWAP1 SWAP3 ADD SLOAD SWAP1 SWAP4 POP SWAP1 SWAP2 POP DUP4 JUMP JUMPDEST PUSH32 0x0 DUP2 JUMP JUMPDEST PUSH1 0x0 PUSH2 0x429 PUSH32 0x0 DUP5 DUP5 PUSH2 0x5C0 JUMP JUMPDEST PUSH1 0x1 PUSH1 0x1 PUSH1 0xA0 SHL SUB DUP2 AND PUSH1 0x0 SWAP1 DUP2 MSTORE PUSH1 0x20 DUP2 SWAP1 MSTORE PUSH1 0x40 SWAP1 KECCAK256 SLOAD SWAP1 SWAP2 POP JUMPDEST PUSH32 0x0 PUSH1 0xFF AND DUP2 LT ISZERO PUSH2 0x49A JUMPI PUSH1 0x1 PUSH1 0x1 PUSH1 0xA0 SHL SUB DUP3 AND PUSH1 0x0 SWAP1 DUP2 MSTORE PUSH1 0x20 DUP2 SWAP1 MSTORE PUSH1 0x40 DUP2 KECCAK256 DUP1 SLOAD PUSH1 0x1 SWAP1 DUP2 ADD DUP3 SSTORE SWAP2 MSTORE ADD PUSH2 0x446 JUMP JUMPDEST POP PUSH1 0x0 PUSH2 0x4A6 TIMESTAMP PUSH2 0x539 JUMP JUMPDEST PUSH1 0x1 PUSH1 0x1 PUSH1 0xA0 SHL SUB DUP4 AND PUSH1 0x0 SWAP1 DUP2 MSTORE PUSH1 0x20 DUP2 SWAP1 MSTORE PUSH1 0x40 DUP2 KECCAK256 DUP1 SLOAD SWAP3 SWAP4 POP SWAP1 SWAP2 PUSH1 0xFF DUP5 AND SWAP1 DUP2 LT PUSH2 0x4D2 JUMPI INVALID JUMPDEST PUSH1 0x0 SWAP2 DUP3 MSTORE PUSH1 0x20 SWAP1 SWAP2 KECCAK256 PUSH1 0x3 SWAP1 SWAP2 MUL ADD DUP1 SLOAD SWAP1 SWAP2 POP TIMESTAMP SUB PUSH32 0x0 DUP2 GT ISZERO PUSH2 0x531 JUMPI PUSH1 0x0 DUP1 PUSH2 0x51D DUP7 PUSH2 0x70E JUMP JUMPDEST POP TIMESTAMP DUP7 SSTORE PUSH1 0x1 DUP7 ADD SWAP2 SWAP1 SWAP2 SSTORE PUSH1 0x2 DUP6 ADD SSTORE POP POP JUMPDEST POP POP POP POP POP POP JUMP JUMPDEST PUSH1 0x0 DUP1 PUSH32 0x0 DUP4 DUP2 PUSH2 0x565 JUMPI INVALID JUMPDEST DIV SWAP1 POP PUSH32 0x0 PUSH1 0xFF AND DUP2 DUP2 PUSH2 0x594 JUMPI INVALID JUMPDEST MOD SWAP4 SWAP3 POP POP POP JUMP JUMPDEST PUSH32 0x0 DUP2 JUMP JUMPDEST PUSH1 0x0 DUP1 PUSH1 0x0 PUSH2 0x5CF DUP6 DUP6 PUSH2 0x8DD JUMP JUMPDEST PUSH1 0x40 DUP1 MLOAD PUSH12 0xFFFFFFFFFFFFFFFFFFFFFFFF NOT PUSH1 0x60 SWAP5 DUP6 SHL DUP2 AND PUSH1 0x20 DUP1 DUP5 ADD SWAP2 SWAP1 SWAP2 MSTORE SWAP4 DUP6 SHL DUP2 AND PUSH1 0x34 DUP4 ADD MSTORE DUP3 MLOAD PUSH1 0x28 DUP2 DUP5 SUB ADD DUP2 MSTORE PUSH1 0x48 DUP4 ADD DUP5 MSTORE DUP1 MLOAD SWAP1 DUP6 ADD KECCAK256 PUSH1 0x1 PUSH1 0x1 PUSH1 0xF8 SHL SUB NOT PUSH1 0x68 DUP5 ADD MSTORE SWAP11 SWAP1 SWAP5 SHL SWAP1 SWAP4 AND PUSH1 0x69 DUP5 ADD MSTORE PUSH1 0x7D DUP4 ADD SWAP9 SWAP1 SWAP9 MSTORE PUSH32 0xD306A548755B9295EE49CC729E13CA4A45E00199BBD890FA146DA43A50571776 PUSH1 0x9D DUP1 DUP5 ADD SWAP2 SWAP1 SWAP2 MSTORE DUP9 MLOAD DUP1 DUP5 SUB SWAP1 SWAP2 ADD DUP2 MSTORE PUSH1 0xBD SWAP1 SWAP3 ADD SWAP1 SWAP8 MSTORE DUP1 MLOAD SWAP7 ADD SWAP6 SWAP1 SWAP6 KECCAK256 SWAP6 SWAP5 POP POP POP POP POP JUMP JUMPDEST PUSH1 0x0 DUP1 PUSH2 0x68C TIMESTAMP PUSH2 0x539 JUMP JUMPDEST SWAP1 POP PUSH1 0x0 PUSH32 0x0 PUSH1 0xFF AND DUP3 PUSH1 0x1 ADD PUSH1 0xFF AND DUP2 PUSH2 0x6C2 JUMPI INVALID JUMPDEST MOD SWAP1 POP PUSH1 0x0 DUP1 DUP6 PUSH1 0x1 PUSH1 0x1 PUSH1 0xA0 SHL SUB AND PUSH1 0x1 PUSH1 0x1 PUSH1 0xA0 SHL SUB AND DUP2 MSTORE PUSH1 0x20 ADD SWAP1 DUP2 MSTORE PUSH1 0x20 ADD PUSH1 0x0 KECCAK256 DUP2 PUSH1 0xFF AND DUP2 SLOAD DUP2 LT PUSH2 0x6F7 JUMPI INVALID JUMPDEST SWAP1 PUSH1 0x0 MSTORE PUSH1 0x20 PUSH1 0x0 KECCAK256 SWAP1 PUSH1 0x3 MUL ADD SWAP3 POP POP POP SWAP2 SWAP1 POP JUMP JUMPDEST PUSH1 0x0 DUP1 PUSH1 0x0 PUSH2 0x71B PUSH2 0xA19 JUMP JUMPDEST SWAP1 POP DUP4 PUSH1 0x1 PUSH1 0x1 PUSH1 0xA0 SHL SUB AND PUSH4 0x5909C0D5 PUSH1 0x40 MLOAD DUP2 PUSH4 0xFFFFFFFF AND PUSH1 0xE0 SHL DUP2 MSTORE PUSH1 0x4 ADD PUSH1 0x20 PUSH1 0x40 MLOAD DUP1 DUP4 SUB DUP2 DUP7 DUP1 EXTCODESIZE ISZERO DUP1 ISZERO PUSH2 0x756 JUMPI PUSH1 0x0 DUP1 REVERT JUMPDEST POP GAS STATICCALL ISZERO DUP1 ISZERO PUSH2 0x76A JUMPI RETURNDATASIZE PUSH1 0x0 DUP1 RETURNDATACOPY RETURNDATASIZE PUSH1 0x0 REVERT JUMPDEST POP POP POP POP PUSH1 0x40 MLOAD RETURNDATASIZE PUSH1 0x20 DUP2 LT ISZERO PUSH2 0x780 JUMPI PUSH1 0x0 DUP1 REVERT JUMPDEST POP MLOAD PUSH1 0x40 DUP1 MLOAD PUSH4 0x5A3D5493 PUSH1 0xE0 SHL DUP2 MSTORE SWAP1 MLOAD SWAP2 SWAP5 POP PUSH1 0x1 PUSH1 0x1 PUSH1 0xA0 SHL SUB DUP7 AND SWAP2 PUSH4 0x5A3D5493 SWAP2 PUSH1 0x4 DUP1 DUP3 ADD SWAP3 PUSH1 0x20 SWAP3 SWAP1 SWAP2 SWAP1 DUP3 SWAP1 SUB ADD DUP2 DUP7 DUP1 EXTCODESIZE ISZERO DUP1 ISZERO PUSH2 0x7C6 JUMPI PUSH1 0x0 DUP1 REVERT JUMPDEST POP GAS STATICCALL ISZERO DUP1 ISZERO PUSH2 0x7DA JUMPI RETURNDATASIZE PUSH1 0x0 DUP1 RETURNDATACOPY RETURNDATASIZE PUSH1 0x0 REVERT JUMPDEST POP POP POP POP PUSH1 0x40 MLOAD RETURNDATASIZE PUSH1 0x20 DUP2 LT ISZERO PUSH2 0x7F0 JUMPI PUSH1 0x0 DUP1 REVERT JUMPDEST POP MLOAD PUSH1 0x40 DUP1 MLOAD PUSH4 0x240BC6B PUSH1 0xE2 SHL DUP2 MSTORE SWAP1 MLOAD SWAP2 SWAP4 POP PUSH1 0x0 SWAP2 DUP3 SWAP2 DUP3 SWAP2 PUSH1 0x1 PUSH1 0x1 PUSH1 0xA0 SHL SUB DUP10 AND SWAP2 PUSH4 0x902F1AC SWAP2 PUSH1 0x4 DUP1 DUP4 ADD SWAP3 PUSH1 0x60 SWAP3 SWAP2 SWAP1 DUP3 SWAP1 SUB ADD DUP2 DUP7 DUP1 EXTCODESIZE ISZERO DUP1 ISZERO PUSH2 0x83C JUMPI PUSH1 0x0 DUP1 REVERT JUMPDEST POP GAS STATICCALL ISZERO DUP1 ISZERO PUSH2 0x850 JUMPI RETURNDATASIZE PUSH1 0x0 DUP1 RETURNDATACOPY RETURNDATASIZE PUSH1 0x0 REVERT JUMPDEST POP POP POP POP PUSH1 0x40 MLOAD RETURNDATASIZE PUSH1 0x60 DUP2 LT ISZERO PUSH2 0x866 JUMPI PUSH1 0x0 DUP1 REVERT JUMPDEST POP DUP1 MLOAD PUSH1 0x20 DUP3 ADD MLOAD PUSH1 0x40 SWAP1 SWAP3 ADD MLOAD SWAP1 SWAP5 POP SWAP1 SWAP3 POP SWAP1 POP PUSH4 0xFFFFFFFF DUP1 DUP3 AND SWAP1 DUP6 AND EQ PUSH2 0x8D3 JUMPI DUP1 DUP5 SUB PUSH4 0xFFFFFFFF DUP2 AND PUSH2 0x8A0 DUP5 DUP7 PUSH2 0xA23 JUMP JUMPDEST MLOAD PUSH1 0x1 PUSH1 0x1 PUSH1 0xE0 SHL SUB AND MUL SWAP7 SWAP1 SWAP7 ADD SWAP6 PUSH4 0xFFFFFFFF DUP2 AND PUSH2 0x8C1 DUP6 DUP6 PUSH2 0xA23 JUMP JUMPDEST MLOAD PUSH1 0x1 PUSH1 0x1 PUSH1 0xE0 SHL SUB AND MUL SWAP6 SWAP1 SWAP6 ADD SWAP5 POP JUMPDEST POP POP POP SWAP2 SWAP4 SWAP1 SWAP3 POP JUMP JUMPDEST PUSH1 0x0 DUP1 DUP3 PUSH1 0x1 PUSH1 0x1 PUSH1 0xA0 SHL SUB AND DUP5 PUSH1 0x1 PUSH1 0x1 PUSH1 0xA0 SHL SUB AND EQ ISZERO PUSH2 0x931 JUMPI PUSH1 0x40 MLOAD PUSH3 0x461BCD PUSH1 0xE5 SHL DUP2 MSTORE PUSH1 0x4 ADD DUP1 DUP1 PUSH1 0x20 ADD DUP3 DUP2 SUB DUP3 MSTORE PUSH1 0x23 DUP2 MSTORE PUSH1 0x20 ADD DUP1 PUSH2 0xB7E PUSH1 0x23 SWAP2 CODECOPY PUSH1 0x40 ADD SWAP2 POP POP PUSH1 0x40 MLOAD DUP1 SWAP2 SUB SWAP1 REVERT JUMPDEST DUP3 PUSH1 0x1 PUSH1 0x1 PUSH1 0xA0 SHL SUB AND DUP5 PUSH1 0x1 PUSH1 0x1 PUSH1 0xA0 SHL SUB AND LT PUSH2 0x951 JUMPI DUP3 DUP5 PUSH2 0x954 JUMP JUMPDEST DUP4 DUP4 JUMPDEST SWAP1 SWAP3 POP SWAP1 POP PUSH1 0x1 PUSH1 0x1 PUSH1 0xA0 SHL SUB DUP3 AND PUSH2 0x9B4 JUMPI PUSH1 0x40 DUP1 MLOAD PUSH3 0x461BCD PUSH1 0xE5 SHL DUP2 MSTORE PUSH1 0x20 PUSH1 0x4 DUP3 ADD MSTORE PUSH1 0x1C PUSH1 0x24 DUP3 ADD MSTORE PUSH32 0x444558737761704C6962726172793A205A45524F5F4144445245535300000000 PUSH1 0x44 DUP3 ADD MSTORE SWAP1 MLOAD SWAP1 DUP2 SWAP1 SUB PUSH1 0x64 ADD SWAP1 REVERT JUMPDEST SWAP3 POP SWAP3 SWAP1 POP JUMP JUMPDEST PUSH1 0x0 PUSH2 0x9C5 PUSH2 0xB58 JUMP JUMPDEST PUSH1 0x40 MLOAD DUP1 PUSH1 0x20 ADD PUSH1 0x40 MSTORE DUP1 DUP6 DUP9 DUP9 SUB DUP2 PUSH2 0x9DB JUMPI INVALID JUMPDEST DIV PUSH1 0x1 PUSH1 0x1 PUSH1 0xE0 SHL SUB AND SWAP1 MSTORE SWAP1 POP PUSH2 0x9FB PUSH2 0x9F6 DUP3 DUP6 PUSH2 0xAD3 JUMP JUMPDEST PUSH2 0xB51 JUMP JUMPDEST PUSH18 0xFFFFFFFFFFFFFFFFFFFFFFFFFFFFFFFFFFFF AND SWAP7 SWAP6 POP POP POP POP POP POP JUMP JUMPDEST PUSH4 0xFFFFFFFF TIMESTAMP AND SWAP1 JUMP JUMPDEST PUSH2 0xA2B PUSH2 0xB58 JUMP JUMPDEST PUSH1 0x0 DUP3 PUSH1 0x1 PUSH1 0x1 PUSH1 0x70 SHL SUB AND GT PUSH2 0xA89 JUMPI PUSH1 0x40 DUP1 MLOAD PUSH3 0x461BCD PUSH1 0xE5 SHL DUP2 MSTORE PUSH1 0x20 PUSH1 0x4 DUP3 ADD MSTORE PUSH1 0x17 PUSH1 0x24 DUP3 ADD MSTORE PUSH32 0x4669786564506F696E743A204449565F42595F5A45524F000000000000000000 PUSH1 0x44 DUP3 ADD MSTORE SWAP1 MLOAD SWAP1 DUP2 SWAP1 SUB PUSH1 0x64 ADD SWAP1 REVERT JUMPDEST PUSH1 0x40 DUP1 MLOAD PUSH1 0x20 DUP2 ADD SWAP1 SWAP2 MSTORE DUP1 PUSH1 0x1 PUSH1 0x1 PUSH1 0x70 SHL SUB DUP5 AND PUSH14 0xFFFFFFFFFFFFFFFFFFFFFFFFFFFF PUSH1 0x70 SHL PUSH1 0x70 DUP8 SWAP1 SHL AND DUP2 PUSH2 0xABE JUMPI INVALID JUMPDEST DIV PUSH1 0x1 PUSH1 0x1 PUSH1 0xE0 SHL SUB AND DUP2 MSTORE POP SWAP1 POP SWAP3 SWAP2 POP POP JUMP JUMPDEST PUSH2 0xADB PUSH2 0xB6A JUMP JUMPDEST PUSH1 0x0 DUP3 ISZERO DUP1 PUSH2 0xB01 JUMPI POP POP DUP3 MLOAD PUSH1 0x1 PUSH1 0x1 PUSH1 0xE0 SHL SUB AND DUP3 DUP2 MUL SWAP1 DUP4 DUP3 DUP2 PUSH2 0xAFE JUMPI INVALID JUMPDEST DIV EQ JUMPDEST PUSH2 0xB3C JUMPI PUSH1 0x40 MLOAD PUSH3 0x461BCD PUSH1 0xE5 SHL DUP2 MSTORE PUSH1 0x4 ADD DUP1 DUP1 PUSH1 0x20 ADD DUP3 DUP2 SUB DUP3 MSTORE PUSH1 0x23 DUP2 MSTORE PUSH1 0x20 ADD DUP1 PUSH2 0xC00 PUSH1 0x23 SWAP2 CODECOPY PUSH1 0x40 ADD SWAP2 POP POP PUSH1 0x40 MLOAD DUP1 SWAP2 SUB SWAP1 REVERT JUMPDEST PUSH1 0x40 DUP1 MLOAD PUSH1 0x20 DUP2 ADD SWAP1 SWAP2 MSTORE SWAP1 DUP2 MSTORE SWAP4 SWAP3 POP POP POP JUMP JUMPDEST MLOAD PUSH1 0x70 SHR SWAP1 JUMP JUMPDEST PUSH1 0x40 DUP1 MLOAD PUSH1 0x20 DUP2 ADD SWAP1 SWAP2 MSTORE PUSH1 0x0 DUP2 MSTORE SWAP1 JUMP JUMPDEST PUSH1 0x40 MLOAD DUP1 PUSH1 0x20 ADD PUSH1 0x40 MSTORE DUP1 PUSH1 0x0 DUP2 MSTORE POP SWAP1 JUMP INVALID DIFFICULTY GASLIMIT PC PUSH20 0x7761704C6962726172793A204944454E54494341 0x4C 0x5F COINBASE DIFFICULTY DIFFICULTY MSTORE GASLIMIT MSTORE8 MSTORE8 GASLIMIT MSTORE8 MSTORE8 PUSH13 0x6964696E6757696E646F774F72 PUSH2 0x636C PUSH6 0x3A204D495353 0x49 0x4E SELFBALANCE 0x5F 0x48 0x49 MSTORE8 SLOAD 0x4F MSTORE 0x49 NUMBER COINBASE 0x4C 0x5F 0x4F TIMESTAMP MSTORE8 GASLIMIT MSTORE JUMP COINBASE SLOAD 0x49 0x4F 0x4E MSTORE8 PUSH13 0x6964696E6757696E646F774F72 PUSH2 0x636C PUSH6 0x3A20554E4558 POP GASLIMIT NUMBER SLOAD GASLIMIT DIFFICULTY 0x5F SLOAD 0x49 0x4D GASLIMIT 0x5F GASLIMIT 0x4C COINBASE POP MSTORE8 GASLIMIT DIFFICULTY CHAINID PUSH10 0x786564506F696E743A20 0x4D SSTORE 0x4C SLOAD 0x49 POP 0x4C 0x49 NUMBER COINBASE SLOAD 0x49 0x4F 0x4E 0x5F 0x4F JUMP GASLIMIT MSTORE CHAINID 0x4C 0x4F JUMPI LOG2 PUSH5 0x6970667358 0x22 SLT KECCAK256 0xF DUP6 PUSH29 0xDD5F50A5550ECB414B330B5309A45AFF9129760C3E6D34D5941EEA9FA1 PUSH5 0x736F6C6343 STOP MOD MOD STOP CALLER MSTORE8 PUSH13 0x6964696E6757696E646F774F72 PUSH2 0x636C PUSH6 0x3A2057494E44 0x4F JUMPI 0x5F 0x4E 0x4F SLOAD 0x5F GASLIMIT JUMP GASLIMIT 0x4E 0x4C MSIZE 0x5F DIFFICULTY 0x49 JUMP 0x49 MSTORE8 0x49 TIMESTAMP 0x4C GASLIMIT "
    }
  },
  "interface": [
    {
      "inputs": [
        {
          "internalType": "address",
          "name": "factory_",
          "type": "address"
        },
        {
          "internalType": "uint256",
          "name": "windowSize_",
          "type": "uint256"
        },
        {
          "internalType": "uint8",
          "name": "granularity_",
          "type": "uint8"
        }
      ],
      "stateMutability": "nonpayable",
      "type": "constructor"
    },
    {
      "inputs": [
        {
          "internalType": "address",
          "name": "tokenIn",
          "type": "address"
        },
        {
          "internalType": "uint256",
          "name": "amountIn",
          "type": "uint256"
        },
        {
          "internalType": "address",
          "name": "tokenOut",
          "type": "address"
        }
      ],
      "name": "consult",
      "outputs": [
        {
          "internalType": "uint256",
          "name": "amountOut",
          "type": "uint256"
        }
      ],
      "stateMutability": "view",
      "type": "function"
    },
    {
      "inputs": [],
      "name": "factory",
      "outputs": [
        {
          "internalType": "address",
          "name": "",
          "type": "address"
        }
      ],
      "stateMutability": "view",
      "type": "function"
    },
    {
      "inputs": [],
      "name": "granularity",
      "outputs": [
        {
          "internalType": "uint8",
          "name": "",
          "type": "uint8"
        }
      ],
      "stateMutability": "view",
      "type": "function"
    },
    {
      "inputs": [
        {
          "internalType": "uint256",
          "name": "timestamp",
          "type": "uint256"
        }
      ],
      "name": "observationIndexOf",
      "outputs": [
        {
          "internalType": "uint8",
          "name": "index",
          "type": "uint8"
        }
      ],
      "stateMutability": "view",
      "type": "function"
    },
    {
      "inputs": [
        {
          "internalType": "address",
          "name": "",
          "type": "address"
        },
        {
          "internalType": "uint256",
          "name": "",
          "type": "uint256"
        }
      ],
      "name": "pairObservations",
      "outputs": [
        {
          "internalType": "uint256",
          "name": "timestamp",
          "type": "uint256"
        },
        {
          "internalType": "uint256",
          "name": "price0Cumulative",
          "type": "uint256"
        },
        {
          "internalType": "uint256",
          "name": "price1Cumulative",
          "type": "uint256"
        }
      ],
      "stateMutability": "view",
      "type": "function"
    },
    {
      "inputs": [],
      "name": "periodSize",
      "outputs": [
        {
          "internalType": "uint256",
          "name": "",
          "type": "uint256"
        }
      ],
      "stateMutability": "view",
      "type": "function"
    },
    {
      "inputs": [
        {
          "internalType": "address",
          "name": "tokenA",
          "type": "address"
        },
        {
          "internalType": "address",
          "name": "tokenB",
          "type": "address"
        }
      ],
      "name": "update",
      "outputs": [],
      "stateMutability": "nonpayable",
      "type": "function"
    },
    {
      "inputs": [],
      "name": "windowSize",
      "outputs": [
        {
          "internalType": "uint256",
          "name": "",
          "type": "uint256"
        }
      ],
      "stateMutability": "view",
      "type": "function"
    }
  ]
}